:101BE50025660020AA2EA32A443833B33DA7A2B008
:101BF50043373220A9A6A12B423631B2A8A5A0466B
:0B1C0500413530B4B12DA42F45393417
:03001700015D8008
:101C1000C2A18F807F017E00121C21D2A27F017E93
:011C200000C3
:101C2100EF1FAA0670011E4A600B7D6EEDD3940072
:051C310040EE1D80F7EC
:011C3600228B
:081667008F618E608D5F8C5EC7
:10166F00E4F562FFFEFDFCAB61AA60A95FA85E1204
:10167F0002BC5013AF61AE60AD5FAC5E1203358F2D
:10168F00618E608D5F8C5EE4FFFE7D807C3FAB6181
:10169F00AA60A95FA85E1202BC60384036E4FFFE64
:1016AF007D807C3FAB61AA60A95FA85E1202BC403F
:1016BF001EAF61AE60AD5FAC5EE4FBFA792078419E
:1016CF0012021F8F618E608D5F8C5E056280CE155A
:1016DF00628064E4FFFEFDFCAB61AA60A95FA85EB7
:1016EF001202BC60524050E4FFFE7D807C3FAB6134
:1016FF00AA60A95FA85E1202BC6002503AE4FFFE26
:10170F007D807C3FAB61AA60A95FA85E1202BC50CE
:10171F001EAF61AE60AD5FAC5EE4FBFA792078413D
:10172F001201168F618E608D5F8C5E056280CEE533
:09173F0062F404FFF56222AF62BE
:01174800227E
:021BAB008F6049
:101BAD00E4F564F56375628075613FE560D394007B
:101BBD00401DAC60E4120350AB64AA63A962A86136
:101BCD001201168F648E638D628C61156080DCAF9F
:071BDD0064AE63AD62AC6170
:011BE40022DE
:101AAD008F5E8D5FAF5F121BABC004C005C006C05B
:101ABD0007AF5E121BABD003D002D001D0001202D3
:101ACD001FC004C005C006C007C3E55E955FFF12C9
:101ADD001BABA804A905AA06AB07D007D006D005F5
:061AED00D00412021F22CA
:101C84008F5EC3E55E9DFF121BABC004C005C0069A
:101C9400C007AF5E121BABD003D002D001D000123C
:031CA400021F22FA
:1019C3008F618E608D5F8C5EAB61AA60A95FA85E3C
:1019D300AF65AE64AD63AC62120021121CD6E4FBAA
:1019E300FA7980783F120025C004C005C006C007FD
:1019F300AF65AE64AD63AC62AB61AA60A95FA85E7C
:101A0300120025D003D002D001D000120116E4FB4E
:081A1300FAF9784012021F22CB
:041CE300155DAF5D7F
:081CE700C2A0121C10C2A222CF
:101B340075F00A12060EF524E52275F00A12060E57
:081B440085F04AE5242430FF7E
:101B4C00D2A0121C10C2A2055DE55DB490087FC046
:101B5C00121CE7755DC0E55DB4D0087F80121CE7F0
:041B6C00755D802201
:100003007F38121CE77F0F121CE77F06121CE77F65
:0400130001021CE7E3
:101C5E007B007A007925121A658F588E578D568C17
:101C6E0055E4F54B7425254BF8E4F6054BE54BB4DE
:061C7E0020F2E4F54B2208
:1017490043B01FC2B3E590F46005E4F560802EC292
:10175900B2E590F460057560018022C2B1E590F4AC
:1017690060057560028016C2B0E590F46005756089
:1017790003800AC2B4E590F4600675600485905E42
:10178900E55E2481603E24C0603524E0602C24F0AD
:10179900602324F8601A24FC601124FE6008147088
:1017A90026E4F55F8021755F01801C755F02801753
:1017B900755F038012755F04800D755F058008757C
:1017C9005F068003755F07E590B4FFFBE56075F080
:1017D90008A424E8F582E4341BF583E582255FF546
:0917E90082E43583F583E493FFEB
:0117F20022D4
:1006EC0053B0E07590FF7F0A7E00121C21E590F458
:1006FC007003020C2F1217498F49E549C3943040FF
:10070C0007E549D394394011E549642E600BE5495E
:10071C00642D6005E549B4450FAF49121B4C742597
:10072C00254BF8A649054B22E5491206C607892A2E
:10073C0007792B07912F08D93D0799A007A1A1078D
:10074C00BCA207DDA307FEA4081EA50848A60861E5
:10075C00A7088BA808B6A908ACAA0781B008BCB139
:10076C0008D1B208D6B30BD9B400000C2F121C5E02
:10077C007F2B02084D121C5E7F2D020837121C5E67
:10078C007F2A020837121C5E7F2F020837121C5E6C
:10079C007F5E020837121C5E7F72121B4C7F6F1239
:1007AC001B4C7F6F121B4C7F74121B4C7F3A807B4F
:1007BC0020090280057F61121B4C7F73121B4C7F3A
:1007CC0069121B4C7F6E121B4C7F3A121B4C020899
:1007DC008620090280057F61121B4C7F63121B4C23
:1007EC007F6F121B4C7F73121B4C7F3A121B4C02F7
:1007FC00088620090280057F61121B4C7F74121B36
:10080C004C7F61121B4C7F6E121B4C7F3A121B4C9F
:10081C008068121C5E7F7E121B4C7F6C121B4C7FFF
:10082C006F121B4C7F67121B4C7F7F121B4C855821
:10083C005C85575B85565A855559803E121C5E7FE8
:10084C0021121B4C85492385585C85575B85565A6C
:10085C008555598041121C5E7F7E121B4C20090469
:10086C007F4380027F41121B4C7F7F121B4C8558AB
:10087C005C85575B85565A855559854923801712D7
:10088C001C5E7F7E121B4C85585C85575B85565AC7
:10089C00855559854923E4F558F557F556F55522F4
:1008AC00055DAF5D121CE7054B22121CE3154B22B4
:1008BC00121CE37F20121B4C121CE3154B742525D4
:1008CC004BF8762022B2B6B20922B2A322121C5ED9
:1008DC00E5231206C609382A090C2B094E2F096488
:1008EC00A0097EA1099AA209BAA309DAA409FAA55A
:1008FC000A25A60A35A70A72A80922B000000A9395
:10090C00AF5CAE5BAD5AAC59AB58AA57A956A855BB
:10091C00120025020A70AB58AA57A956A855AF5C0D
:10092C00AE5BAD5AAC59120021020A70AF58AE57EB
:10093C00AD56AC55AB5CAA5BA95AA859120116026C
:10094C000A70AB58AA57A956A855AF5CAE5BAD5A06
:10095C00AC5912021F020A7085586585576485567A
:10096C0063855562AF5CAE5BAD5AAC5912146A022A
:10097C000A70AF58AE57AD56AC55121241AB5CAACB
:10098C005BA95AA85912021F1218D5020A70AF5847
:10099C00AE57AD56AC552009051210FD8003121B45
:1009AC00708F488E478D468C45C209020A9FAF58FE
:1009BC00AE57AD56AC552009051210E78003121A3C
:1009CC001B8F488E478D468C45C209020A9FAF5833
:1009DC00AE57AD56AC5520090512112F80031213DA
:1009EC00628F488E478D468C45C209020A9FAF5CC8
:1009FC00AE5BAD5AAC59121241C004C005C006C062
:100A0C0007AF58AE57AD56AC55121241D003D002B9
:100A1C00D001D00012021F8064AF5CAE5BAD5AAC4B
:100A2C0059120384121BAB8054AF5CAE5BAD5AAC55
:100A3C0059200919120384C007AF58AE57AD56ACF4
:100A4C0055120384AD07D007121AAD801712038418
:100A5C00C007AF58AE57AD56AC55120384AD07D096
:100A6C0007121C84801785586585576485566385E5
:100A7C005562AF5CAE5BAD5AAC591219C38F488E40
:100A8C00478D468C45800C8558488557478556467A
:100A9C008555457561FF75621B7563E585486785EE
:100AAC0047668546658545647B007A00794C120C57
:100ABC008CAF48AE47AD46AC451216678F22D3E5D6
:100ACC002264809487404D754B08744B254BF8E697
:100ADC00FF744C254BF8A607154BE54BB401EB7591
:100AEC004D2E7FC9121CE7755DC87F78121B4C7F99
:100AFC0031121B4C7F30121B4C7F5E121B4CD3E50A
:100B0C002264809489E5224008121B34E54A020BCA
:100B1C00A9020BA9C3E522648094794003020BAFB0
:100B2C00E522F404F522FC1203508F658E648D636C
:100B3C008C627F007E007D207C4112146AAB48AA37
:100B4C0047A946A8451201168F488E478D468C45FD
:100B5C007561FF75621B7563E58F678E668D658C9D
:100B6C00647B007A00794C120C8C7FC9121CE775DF
:100B7C005DC97F78121B4C7F31121B4C7F30121BCE
:100B8C004C7F5E121B4C7F2D121B4CD3E5226480D4
:100B9C009489E5224007121B34E54A80002430FF7B
:100BAC00121B4C7FC0121CE7755DC0E4F54B744CF6
:100BBC00254BF8E6FF121B4C121C1D054BE54BC3D5
:100BCC00940840EA7FCF121CE7755DCF227F01129B
:100BDC001CE77F80121CE7755D80E4F54B742525BE
:100BEC004BF8E4F6054BE54BB420F2E4F54B744CB2
:100BFC00254BF8E4F6054BE54BB409F2E4F55CF54E
:100C0C005BF55AF559F558F557F556F555C209F5F2
:100C1C0048F547F546F545F54BF524F54AF549F504
:040C2C0023C2B62207
:101CA700D2AFD2AB758910758D3C758BB0D2A3C2FC
:0C1CB700B61200037F80121CE7D28E22C0
:081CEF00121CA775870180FBA0
:03001B00021AF3D3
:101AF300C0E0C0F0C083C082C0D075D000C000C0B9
:101B030001C002C003C004C005C006C007758D3CF8
:101B1300758BB01206ECD007D006D005D004D003E5
:101B2300D002D001D000D0D0D082D083D0F0D0E08A
:011B3300327F
:10001E000203F0E86480F8E933E83360110460F01D
:10002E00ED33EC337009E8FCE9FDEAFEEBFF220448
:10003E0060DED3EB9FEA9EE99DE8C2E78CF0C2F743
:10004E0095F0400CE8CCF8E9CDF9EACEFAEBCFFB0F
:10005E001203BB85D0F05804700320D5B3E80470AA
:10006E00075002B2D50203FA92D5EC0460F7E4CC45
:10007E00C0E0C398F8603B94186008400DD0E0FBD8
:10008E000203D2E4FBFAC9FC8028E830E406E4C996
:10009E00FBE4CAFCE830E305E4C9CACBFCE854072C
:1000AE006010F8C3E913F9EA13FAEB13FBEC13FC37
:1000BE00D8F130F52FC3E49CFCEF9BFFEE9AFEEDDA
:1000CE0099FDD0E0FBEF4E4D4C701222DB03020384
:1000DE00F7EC2CFCEF33FFEE33FEED33FDED30E7A6
:1000EE00EB0203D2EF2BFFEE3AFEED39FDD0E0FB33
:1000FE0050130BBB00030203FAED13FDEE13FEEFDC
:08010E0013FFEC13FC0203D205
:10011600EC4D6011E8497017ED33EC3304600DE4E3
:10012600FCFFFEFD22E933E8330470F80203F01207
:1001360003BB58046009E4CC248150062850090208
:1001460003FA2840030203F7C0E0EB4A7044B98083
:1001560006D0E0FB0203E6EF4E701CBD8008EBFF05
:10016600EAFEE9FD80EBE98DF0A4FEE5F00201FF71
:10017600E9CDF9EAFEEBFFEF89F0A4FCE5F0CE89C4
:10018600F0A42EFFE435F0CD89F0A42DFEE435F081
:100196008067EF4E7005BD80D780C3EF8BF0A4ACAF
:1001A600F0EE8BF0A42CFCE435F0F8EF8AF0A42CEA
:1001B600E5F038FCE433CB8DF0A42CFCE5F03BF8FD
:1001C600EE8AF0A42CFCE5F038F8E433CF89F0A4ED
:1001D6002CFCE5F038CF3400CE89F0A42FFFE5F0F3
:1001E6003EFEE433C98DF0A42EFEE5F039CD8AF04B
:1001F600A42FFFE5F03EFEE43DFD33D0E0FB5007C3
:100206000BBB000F0203FAEC2CFCEF33FFEE33FEC0
:06021600ED33FD0203D2EE
:10021C000203FAEC5D046005E8590470030203F074
:10022C001203BB580460F6EC4860F2EC7004FDFE5F
:10023C00FF22C860DB2481C85009C39860025006B5
:10024C000203F79850CAF582E9294B4A7005AB8234
:10025C000203E675F0007C1A7880C3EF9BEE9AEDF2
:10026C0099400DC3EF9BFFEE9AFEED99FDE842F02D
:10027C00DC23ACF0D0E0FFD0E0FED0E0FDAB822080
:10028C00E7101BEB60BAEC2CFCEF33FFEE33FEED0A
:10029C0033FD0203D2E803F830E705C0F075F00037
:1002AC00EF2FFFEE33FEED33FD40B830E7C280AAEE
:1002BC0074F8CC6480CCC86480C8F58204604FC3E9
:1002CC00EB9FF5F0EA9E42F0E99D42F0E89C45F088
:1002DC00603C501DE5825FFFE582D313CB5BCBF412
:1002EC002B5582FB50280ABA002409B9002008803B
:1002FC001DE5825BFBE582D313CF5FCFF4C3132FD5
:10030C005582FF50090EBE00050DBD00010CC3EB5C
:10031C009FF5F0EA9E42F0E99D42F0E89C45F060C2
:09032C0007CC4820E701B3EC22E4
:10033500ED33EC33600A047003BD8004ECB2E7FCD6
:010345002295
:1003460075F020800E75F010800575F0087D007E32
:10035600007F003392D530D503120688EC33401067
:10036600EF33FFEE33FEED33FDEC33FCD5F0ED223B
:0E037600E5F0247EA2D513CC92E7CDCEFF2277
:10038400EDD2E7CD33EC3392D524814006E4FFFE71
:10039400FDFC22FCE4CFCECDCC24E0501174FF80D0
:1003A400EDC3CC13CCCD13CDCE13CECF13CF04706D
:0703B400F030D5DE020688DF
:100C3000E5752461F8E6057522785E300702786173
:100C4000E475F0011206B60206302000EB7F2ED2CA
:100C5000008018EF540F2490D43440D4FF30040B9C
:100C6000EF24BFB41A0050032461FFE5766002153B
:100C7000760579E5797002057830070D785EE475C0
:100C8000F0011206B6EF020676021C377403D20793
:100C90008003E4C207F5758B5E8A5F8960E4F576B0
:100CA000F578F579E57660077F20120C6B80F57595
:100CB00077FFC201C200C202C203C205C206C20857
:100CC000120C39FF700D3007057F00120C7CAF79D4
:100CD000AE7822B4255FC2D5C204120C39FF24D0ED
:100CE000B40A00501A75F00A787630D50508B6FFB8
:100CF0000106C6A426F620D5047002D20380D924AA
:100D0000CFB41A00EF5004C2E5D204020F69D20139
:100D100080C6D20080C0D20280BCD2D580BAD205B3
:100D200080B47F20120C6B2002077401B57600405E
:100D3000F1120C30FF120C6B020CA4D208D2068008
:100D400095120C30FB120C30FA120C30F94A4B7031
:100D50000679607A107BFF20022EE576602A7E00FD
:100D60008E8275830012064960060EEE657770F07C
:100D7000C2D5EBC0E0EAC0E0E9C0E0EE120FC9D096
:100D8000E0F9D0E0FAD0E0FB120630FF60AAEBC039
:100D9000E0EAC0E0E9C0E0120C6BD0E02401F9D039
:100DA000E03400FAD0E0FBE5770460DCD577D98049
:100DB00087D20280A2120FAC60F7E57770010412AF
:100DC000041FA977600DE577600914F577121053B9
:100DD000EF60F3EA30E702F404C3995077EAF425B0
:100DE000770430E701E404F577800D120FAC60C1A1
:100DF000EA0577257712041FEA7874F630E701E4F4
:100E0000257704D5770420050114120FC9E4C0E04A
:100E10001210537874E6601320E70714F6120C538F
:100E2000802204F6D0E014C0E07F00120C53E57776
:100E30006007120C4A1577800B300503120C4AD05C
:100E4000E0020CA4D0E00480C5120FAC60A0E577EE
:100E50000412041F7874EAF6E577200502600104A5
:050E60002404120FC97B
:100E650074FF04C0E0121053120C53E577200502FD
:100E75006003120C4AD0E0B577E87F45120C5D7827
:100E850074E67F2B30E7047F2DF404C0E0120C6B71
:100E9500D0E075F00A84C0F0120C54D0E0120C5466
:100EA500020CA4791080027908C206C2088008D213
:100EB500D5790A8004790AC2D5E577047002F577F9
:100EC500E4FAFDFEFF120C30FC7B08200113120C26
:100ED50030FD7B1030000A120C30FE120C30FF7B07
:100EE50020EC3382D592D55013C3E43000069FFF22
:100EF500E49EFEE42001039DFDE49CFCE4CBF8C2E6
:100F050001EC700CCFCECDCCE824F8F870F3801747
:100F1500C3EF33FFEE33FEED33FDEC33FCEB33FB78
:100F2500994002FB0FD8E9EB300105F8D0E0C44841
:100F3500B201C0E00AEC4D4E4F78207B0070C2EA4A
:100F4500B5770040BCC0E0120FCBD0F0D0E0200157
:100F550004C4C0E0C4B201C0F0120C54D0F0D5F006
:100F6500EB020CA41206C60D41530EA8580D124CE7
:100F75000D0E420EAC4F0EB4440EB4490D27430E70
:100F8500BA550DEB460E49450DB5471080500D1667
:100F95002D0D1A2E0D3D2B0D1E230D3B2010692AFC
:100FA5000CD64800000D35E577B4FF0375770612BA
:100FB5000C30FC120C30FD120C30FE120C30FF7898
:100FC5006D02044E790AA2D5200314300509B91023
:100FD500020404B9080104A2D52006025001042028
:100FE50002689202B576005034C0E07F20300319C4
:100FF5007F30A20272067205500F121022C202C281
:1010050006C205C2087F30800F300503E9C0E01233
:101015000C6B300503D0E0F9D0E0B576CC30051780
:101025007F30B9100C120C6B7F583004077F788025
:1010350003B90803120C6B3002057F2D020C6B7F80
:10104500202008F87F2B2006F322920280CF7F0014
:10105500B407005005246DF8E6FF22286E756C6C08
:101065002900D201120C303001F8C201787630D552
:101075000108F6020CD62D50434958120C302403B2
:10108500B405004001E490107B93120C5C743A1295
:0A1095000C5CD203757604020EA86D
:0D1CD600ED33EC3360065004EC6480FC221A
:101A6500D2008B5E8A5F8960121AA1C0E0FF121C4A
:101A7500C3D0E040F3121594400122ECC0E0EDC064
:101A8500E0EEC0E0EFC0E0121AA1D0F0AFF0D0F068
:101A9500AEF0D0F0ADF0D0F0ACF080D9E475F00147
:081AA500785E1206B60206305D
:10189D0033DA929E35B16011377FE5FE39218489A7
:1018AD003AAEC3FF3C1D955B3D6358473E75FDF059
:1018BD003F3172183F800000C2D50203FA0203F0D7
:1018CD00BD80FA50F30203F7ED33EC330460F17B86
:1018DD003B7AAA79B8783F120116ED33EC3392D5E5
:1018ED00247B5011A2D570DB500BED4480240450A5
:1018FD0004A2D580CEEFFBEEFAEDF9ECF8120384DD
:10190D00EFF582F404FC120350120025C0829018EA
:10191D009D7409120560ED33CC33D0F092D525F0CE
:0A192D00A2D57001C313CC13FD22F4
:10120D003E9248DA3ECCCCCD3F2AAAAB400000003E
:10121D003F8000003F9837F03FB504F33FD744FCC3
:10122D003E3172173EB172173F0515913EDE5BD907
:10123D00D2008002C200EDD2E7F8CD33EC3304705A
:10124D000BBD800592D50203FA0203F040FBD314C7
:10125D0060F2F5F07C3FEE7A00C39496C8948B4013
:10126D00230AC89469C8941A401A0AC89468C89485
:10127D001F40110AC8945AC89425400805F07A00F9
:10128D00CDC2E7CDC0F08C688D698E6A8F6BEA2375
:10129D0023C0E0241DF582E43412F5831206A61254
:1012AD000025ECC0E0EDC0E0EEC0E0EFC0E01206BE
:1012BD0096A868A969AA6AAB6B120021D0E0FBD091
:1012CD00E0FAD0E0F9D0E0B2E7F812021F8C688D99
:1012DD00698E6A8F6B90120D7403120551A868A95F
:1012ED0069AA6AAB6B120116D0E0600F2429F58252
:1012FD00E43412F5831206A61200258C688D698ED2
:10130D006A8F6BD0E0C3947FFDE49400FC12034B15
:10131D007B187A727931783F120116A868A969AAEB
:10132D006AAB6B12002530000B7BD97A5B79DE78C6
:05133D003E1201162222
:10109F003A70FA83BCAAE9E43E81E0F8BF9DE9E625
:1010AF003F80000039283C1ABB9969663DA335E3A0
:1010BF00BF255DE73FC90FDB418DDBCCC44936EE61
:1010CF0045C9913FC5B0F83D3F800000C317F534C7
:1010DF00452FFA73C60AFDDD12118E04A2E19200AC
:1010EF001420E01590109F740412055180261211E0
:1010FF008E30E102B20020E0EB8C5E8D5F8E608F50
:10110F00619010B37404120551A85EA95FAA60AB79
:10111F0061120116ED4C6007300004EC6480FC2274
:10112F0012118EC0E08C5E8D5F8E608F619010D734
:10113F007403120551A85EA95FAA60AB6112011674
:10114F00ECC55EFCEDC55FFDEEC560FEEFC561FF52
:10115F009010C77403120551D082A85EA95FAA60D0
:10116F00AB61E58230E00712021FB20080A6EFCB21
:10117F00FFEECAFEEDC9FDECC8FC12021F8095ED13
:10118F0033EC547FCC33920024605007D0E0D0E092
:10119F000203F07B837AF97922783E120116EDF97A
:1011AF0033ECF83324815011EFFBEEFA1203841263
:1011BF000346ECB2E7FC120025ED33EC33602F242D
:1011CF0003F8C313FCED92E7FDE82481E4501FEC14
:1011DF00F8EDF9EEFAEFFB120384EF04C2E0FCF531
:1011EF0082120350ECB2E7FC120025E58203FAED00
:0E11FF0033EC3360071413FCED92E7FDEA2297
:10134200BE1249253E4CCCCDBEAAAAAB3F800000BE
:101352003E7ADBB03EED63383F24BC7D3F490FDB74
:10136200ED33ECC2E7CC339200B4FF13ED547F604F
:10137200030203F07FDB7E0F7DC97C3F02145DC256
:1013820001C3947F401E7007EDD2E794904015EFA1
:10139200FBEEFAEDF9ECF87F007E007D807C3F12D7
:1013A200021FD201ED33EC33248430E705E4C0E0C0
:1013B200806D04FAEDD2E754F0C333DAFD540734FA
:1013C200002323C0E0CCC0E0F8EDC0E0F9EEC0E0BD
:1013D200FAEFC0E0FBE4120350EC24FEFC8C5E8DBD
:1013E2005F8E608F611201167B007A007980783FF0
:1013F200120025ECC55EB2E7FCEDC55FFDEEC560EF
:10140200FEEFC561FFD0E0FBD0E0FAD0E0F9D0E01A
:10141200F8120025A85EA95FAA60AB6112021F8CB8
:101422005E8D5F8E608F619013427403120551A826
:101432005EA95FAA60AB61120116D0E0600F244E74
:10144200F582E43413F5831206A612002530010B4F
:101452007BDB7A0F79C978BF120025ED33EC33605C
:0814620006ECA20092E7FC2257
:101A1B00ECC0E0F8EDC0E0F9EEC0E0FAEFC0E0FB9F
:101A2B00120116EC6480FC7B007A007980783F12FF
:101A3B0000251217F7D0E0FBD0E0FAD0E0F9D0E0A8
:101A4B00F8C0E012021F121362D0E030E70B7840AF
:0A1A5B0079497A0F7BD91200252289
:101B7000ECC0E0F8EDC0E0F9EEC0E0FAEFC0E0FB49
:101B8000120116EC6480FC7B007A007980783F12A9
:101B900000251217F7D0E0CFFBD0E0CEFAD0E0CD91
:0B1BA000F9D0E0CCF812021F02136223
:10146A008F618E608D5F8C5EE4FFFE7D807C3FAB7A
:10147A0061AA60A95FA85E1202BC7009AF61AE6082
:10148A00AD5FAC5E22AF61AE60AD5FAC5E120405CB
:10149A00FBAF65AE64AD63AC62120405FFBF010821
:1014AA00E4FFFE7D807C3F22EF64046022EB64044B
:1014BA00601DBB0127E4FFFEFDFCAB65AA64A963BE
:1014CA00A8621202BC60084006E4FFFEFDFC22741A
:1014DA00FFF565F564F563F562021578E4F566F5DE
:1014EA0067FFFEFDFCAB61AA60A95FA85E1202BCA1
:1014FA00504BAF65AE64AD63AC621203848E668FE7
:10150A0067AC66AD67EC12034BC8ECC8C9EDC9CA33
:10151A00EECACBEFCBAF65AE64AD63AC621200210D
:10152A00E4FBFAF9F81202BC70A5AF61AE60AD5FD8
:10153A00AC5E1203358F618E608D5F8C5EAF61AEDB
:10154A0060AD5FAC5E121241AB65AA64A963A86282
:10155A001201161218D58F658E648D638C62E56749
:10156A0030E00B1203358F658E648D638C62AF6534
:07157A00AE64AD63AC622218
:1003BB00E9D2E7C933E833F892D5EDD2E7CD33EC88
:0703CB0033FC5002B2D52201
:1003D200EC30E7100FBF000C0EBE00080DBD00048C
:1003E2000BEB6014A2D5EB13FCED92E7FD2274FF38
:1003F200FCFDFEFF22E480F8A2D574FF13FC7D8091
:03040200E480EFA4
:10040500ED33EC33601004700FED547F700574020A
:0A04150092E0227404220422E42283
:10041F00F920E72824F950037907E4F42402FB18A4
:10042F00DBFDE624FB5014E9600DE4F618E604F654
:0F043F00B40A08E4F6D9F57401F60A22C2D522F0
:10044E00ED33EC3392D5FA602AB4FF33EDC2E77B7D
:10045E00FF60067A047973E4227A04797C20D5044D
:10046E007A047977224E614E002B494E46002D4973
:10047E004E4600E47A08F608DAFC7B00740722E8A0
:10048E00C0E0ECC0E0EDC0E0EEC0E0EFC0E0EA7529
:10049E00F010A4CAABF075F04DA42BFBE435F0FCC4
:1004AE00EA2410FAEB34C5FBEC34D9FCEDC2E7FFBD
:1004BE0075F056A4F42411C5F0F434C58FF0A42AB7
:1004CE00E5F03BE43CF620E7141205CED0E0FFD079
:1004DE00E0FED0E0FDD0E0FC12021F8014F4041206
:1004EE0005CED0E0FFD0E0FED0E0FDD0E0FC120162
:1004FE0016D0E0F8E6FAEDD2E7CD33EC332482FBEA
:10050E00E4C3CF33CFCE33CECD33CD33DBF37B0746
:10051E0075F00A846004F6081B0AE5F0F6088FF001
:10052E00740AA4FFACF08EF0740AA42CFEACF0504A
:10053E00010C8DF0740AA42CFDE435F0F608DBDE18
:03054E007407220D
:10158100C201C202C203C204F9E4F561F562FCFDC5
:10159100FEFFE91000EA20030CB42D04D203D3228C
:1015A100B42B02D32224D0504794095041240A304D
:1015B1000415F88562F0740AA42872E74051C5F059
:1015C100704D85F062D322D202C0E0E4FBFA7920AB
:1015D1007841120116ECF8EDF9EEFAEFFBD0E0FCE0
:1015E100E41203501200253001B41561D322240AFC
:1015F100200420B4FE0720011AD201D32224EB607B
:101601000424E0700EA2039201D204C203D322C3C8
:101611000203F0E430040BE562300302F404A2019A
:1016210092033002EA256120D2E5A2E7920450023A
:10163100F404B4260050D8CCC0E0EDC0E0EEC0E028
:10164100EFC0E0EC1205CED0E0FFD0E0FED0E0FD2F
:10165100D0E0FC200405120116800312021F3003A2
:0616610003120335C32251
:10055100C0E0EFFBEEFAEDF9ECF8120116D0E0F590
:10056100F0EFFBEEFAEDF9ECF8120696A3A3A3A3C4
:10057100E8C0E0E9C0E0EAC0E0EBC0E0C0F0120191
:10058100161206A6A3A3A3A3120025D0F0D0E0FB68
:0D059100D0E0FAD0E0F9D0E0F8D5F0D422A7
:1017F3000203F022EDA2E7D2E7F9EC3340F260F303
:10180300B4FF08ED547F70E80203FAF82481C2E0C4
:10181300C0E0F40428FAC313FCED92E7FD8C5E8D5F
:101823005F8E608F61EEA2E7E9BA7F02C3133400D3
:101833009400FA75F091A4E5F013F494FE8AF0A4F1
:1018430033E5F033248CD313FDE492E7FE7F007C71
:101853003F758302ECC0E0F8EDC0E0F9EEC0E0FABA
:10186300EFC0E0FBAC5EAD5FAE60AF6112021FD0B4
:10187300E0FBD0E0FAD0E0F9D0E0F8120025ED6407
:1018830080FD30E7011CD583CBED33CC33F8D0E0BA
:0A189300A2E71328C313CC13FD22B3
:10059E003F8000004120000042C80000447A000065
:1005AE00461C400047C35000497424004B189680E7
:1005BE004CBEBC205A0E1BCA6753C21C749DC5AEDE
:1005CE00FB60065407601C23231205FCEB543860B5
:1005DE00091205E81205F7120116ECF8EDF9EEFA1C
:1005EE00EFCB22EB1205F780F1543803241C900553
:1005FE009EFE93FC0EEE93FD0EEE930ECE93FF2217
:03000000021937AB
:0C193700787FE4F6D8FD75817902197EF6
:10060E00C2D530F707B2D563F0FF05F030E70CB274
:10061E00D5F4048463F0FF05F080018430D502F434
:02062E000422A4
:10063000BB010689828A83E0225002E722BBFE02C8
:09064000E32289828A83E49322FB
:10064900BB010CE58229F582E5833AF583E0225066
:1006590006E92582F8E622BBFE06E92582F8E222B0
:0D066900E58229F582E5833AF583E49322CA
:10067600BB010689828A83F0225002F722BBFE0163
:02068600F3225D
:0E068800C3E49FFFE49EFEE49DFDE49CFC2283
:10069600E493FC740193FD740293FE740393FF22AA
:1006A600E493F8740193F9740293FA740393FB22AA
:1006B600FAE6FB0808E6F925F0F618E6CA3AF62245
:1006C600D083D082F8E4937012740193700DA3A3C3
:1006D60093F8740193F5828883E4737402936860D7
:0606E600EFA3A3A380DFD7
:101C3700EFB40A07740D121C42740A309811A89960
:101C4700B8130CC2983098FDA899C298B811F6300D
:071C570099FDC299F59922E5
:101CC300EFC394094005EF940E4003BF2003D38074
:031CD30001C32228
:10194300021CEFE493A3F8E493A34003F68001F2AF
:1019530008DFF48029E493A3F85407240CC8C333A5
:10196300C4540F4420C8834004F456800146F6DF74
:10197300E4800B0102040810204080900017E47EED
:10198300019360BCA3FF543F30E509541FFEE49369
:10199300A360010ECF54C025E060A840B8E493A330
:1019A300FAE493A3F8E493A3C8C582C8CAC583CA5B
:1019B300F0A3C8C582C8CAC583CADFE9DEE780BE13
:01001A0000E5
:00000001FF
